{"abi":[{"type":"constructor","inputs":[{"name":"_usdcAddress","type":"address","internalType":"address"}],"stateMutability":"nonpayable"},{"type":"function","name":"createPayment","inputs":[{"name":"_invoiceId","type":"string","internalType":"string"},{"name":"_amount","type":"uint256","internalType":"uint256"},{"name":"_recipient","type":"address","internalType":"address"}],"outputs":[],"stateMutability":"nonpayable"},{"type":"function","name":"executePayment","inputs":[{"name":"_invoiceId","type":"string","internalType":"string"}],"outputs":[],"stateMutability":"nonpayable"},{"type":"function","name":"owner","inputs":[],"outputs":[{"name":"","type":"address","internalType":"address"}],"stateMutability":"view"},{"type":"function","name":"paymentConditions","inputs":[{"name":"","type":"string","internalType":"string"}],"outputs":[{"name":"amount","type":"uint256","internalType":"uint256"},{"name":"recipientAddress","type":"address","internalType":"address"},{"name":"isFulfilled","type":"bool","internalType":"bool"},{"name":"isPaid","type":"bool","internalType":"bool"}],"stateMutability":"view"},{"type":"function","name":"renounceOwnership","inputs":[],"outputs":[],"stateMutability":"nonpayable"},{"type":"function","name":"setPaymentFulfilled","inputs":[{"name":"_invoiceId","type":"string","internalType":"string"}],"outputs":[],"stateMutability":"nonpayable"},{"type":"function","name":"transferOwnership","inputs":[{"name":"newOwner","type":"address","internalType":"address"}],"outputs":[],"stateMutability":"nonpayable"},{"type":"function","name":"usdcToken","inputs":[],"outputs":[{"name":"","type":"address","internalType":"contract IERC20"}],"stateMutability":"view"},{"type":"event","name":"OwnershipTransferred","inputs":[{"name":"previousOwner","type":"address","indexed":true,"internalType":"address"},{"name":"newOwner","type":"address","indexed":true,"internalType":"address"}],"anonymous":false},{"type":"event","name":"PaymentCreated","inputs":[{"name":"invoiceId","type":"string","indexed":true,"internalType":"string"},{"name":"amount","type":"uint256","indexed":false,"internalType":"uint256"},{"name":"recipient","type":"address","indexed":true,"internalType":"address"}],"anonymous":false},{"type":"event","name":"PaymentExecuted","inputs":[{"name":"invoiceId","type":"string","indexed":true,"internalType":"string"},{"name":"recipient","type":"address","indexed":true,"internalType":"address"},{"name":"amount","type":"uint256","indexed":false,"internalType":"uint256"}],"anonymous":false},{"type":"event","name":"PaymentFulfilled","inputs":[{"name":"invoiceId","type":"string","indexed":true,"internalType":"string"}],"anonymous":false},{"type":"error","name":"OwnableInvalidOwner","inputs":[{"name":"owner","type":"address","internalType":"address"}]},{"type":"error","name":"OwnableUnauthorizedAccount","inputs":[{"name":"account","type":"address","internalType":"address"}]}],"bytecode":{"object":"0x608060405234801561000f575f5ffd5b5060405161126d38038061126d83398181016040528101906100319190610217565b335f73ffffffffffffffffffffffffffffffffffffffff168173ffffffffffffffffffffffffffffffffffffffff16036100a2575f6040517f1e4fbdf70000000000000000000000000000000000000000000000000000000081526004016100999190610251565b60405180910390fd5b6100b1816100f860201b60201c565b508060015f6101000a81548173ffffffffffffffffffffffffffffffffffffffff021916908373ffffffffffffffffffffffffffffffffffffffff1602179055505061026a565b5f5f5f9054906101000a900473ffffffffffffffffffffffffffffffffffffffff169050815f5f6101000a81548173ffffffffffffffffffffffffffffffffffffffff021916908373ffffffffffffffffffffffffffffffffffffffff1602179055508173ffffffffffffffffffffffffffffffffffffffff168173ffffffffffffffffffffffffffffffffffffffff167f8be0079c531659141344cd1fd0a4f28419497f9722a3daafe3b4186f6b6457e060405160405180910390a35050565b5f5ffd5b5f73ffffffffffffffffffffffffffffffffffffffff82169050919050565b5f6101e6826101bd565b9050919050565b6101f6816101dc565b8114610200575f5ffd5b50565b5f81519050610211816101ed565b92915050565b5f6020828403121561022c5761022b6101b9565b5b5f61023984828501610203565b91505092915050565b61024b816101dc565b82525050565b5f6020820190506102645f830184610242565b92915050565b610ff6806102775f395ff3fe608060405234801561000f575f5ffd5b5060043610610086575f3560e01c80638da5cb5b116100595780638da5cb5b146100ea578063ae2b884014610108578063cecd02641461013b578063f2fde38b1461015757610086565b806303120d461461008a5780630a7c9ebb146100a657806311eac855146100c2578063715018a6146100e0575b5f5ffd5b6100a4600480360381019061009f9190610b2d565b610173565b005b6100c060048036038101906100bb9190610b99565b610330565b005b6100ca610419565b6040516100d79190610c3b565b60405180910390f35b6100e861043e565b005b6100f2610451565b6040516100ff9190610c63565b60405180910390f35b610122600480360381019061011d9190610b99565b610478565b6040516101329493929190610ca5565b60405180910390f35b61015560048036038101906101509190610b99565b6104f5565b005b610171600480360381019061016c9190610ce8565b610780565b005b61017b610804565b5f60028460405161018c9190610d65565b90815260200160405180910390205f0154146101dd576040517f08c379a00000000000000000000000000000000000000000000000000000000081526004016101d490610dd5565b60405180910390fd5b60405180608001604052808381526020018273ffffffffffffffffffffffffffffffffffffffff1681526020015f151581526020015f15158152506002846040516102289190610d65565b90815260200160405180910390205f820151815f01556020820151816001015f6101000a81548173ffffffffffffffffffffffffffffffffffffffff021916908373ffffffffffffffffffffffffffffffffffffffff16021790555060408201518160010160146101000a81548160ff02191690831515021790555060608201518160010160156101000a81548160ff0219169083151502179055509050508073ffffffffffffffffffffffffffffffffffffffff16836040516102ec9190610d65565b60405180910390207fb2124cc33dea172c89dda13fad487142e8e88bb9ed9c940ec0498edc45089d03846040516103239190610df3565b60405180910390a3505050565b610338610804565b5f6002826040516103499190610d65565b90815260200160405180910390205f01541161039a576040517f08c379a000000000000000000000000000000000000000000000000000000000815260040161039190610e56565b60405180910390fd5b60016002826040516103ac9190610d65565b908152602001604051809103902060010160146101000a81548160ff021916908315150217905550806040516103e29190610d65565b60405180910390207f2aa3eb6839efa83f17eab422a89eab2e3fcacec5db77752ed3bee33179fbe97160405160405180910390a250565b60015f9054906101000a900473ffffffffffffffffffffffffffffffffffffffff1681565b610446610804565b61044f5f61088b565b565b5f5f5f9054906101000a900473ffffffffffffffffffffffffffffffffffffffff16905090565b6002818051602081018201805184825260208301602085012081835280955050505050505f91509050805f015490806001015f9054906101000a900473ffffffffffffffffffffffffffffffffffffffff16908060010160149054906101000a900460ff16908060010160159054906101000a900460ff16905084565b6104fd610804565b5f60028260405161050e9190610d65565b908152602001604051809103902090505f815f015411610563576040517f08c379a000000000000000000000000000000000000000000000000000000000815260040161055a90610e56565b60405180910390fd5b600115158160010160149054906101000a900460ff161515146105bb576040517f08c379a00000000000000000000000000000000000000000000000000000000081526004016105b290610ebe565b60405180910390fd5b5f15158160010160159054906101000a900460ff16151514610612576040517f08c379a000000000000000000000000000000000000000000000000000000000815260040161060990610f26565b60405180910390fd5b60018160010160156101000a81548160ff02191690831515021790555060015f9054906101000a900473ffffffffffffffffffffffffffffffffffffffff1673ffffffffffffffffffffffffffffffffffffffff1663a9059cbb826001015f9054906101000a900473ffffffffffffffffffffffffffffffffffffffff16835f01546040518363ffffffff1660e01b81526004016106b1929190610f44565b6020604051808303815f875af11580156106cd573d5f5f3e3d5ffd5b505050506040513d601f19601f820116820180604052508101906106f19190610f95565b50806001015f9054906101000a900473ffffffffffffffffffffffffffffffffffffffff1673ffffffffffffffffffffffffffffffffffffffff168260405161073a9190610d65565b60405180910390207f7f0814a9eb7ac81f4e14953acec79f6c46feb020fdc1a77fd73c674437d23d3b835f01546040516107749190610df3565b60405180910390a35050565b610788610804565b5f73ffffffffffffffffffffffffffffffffffffffff168173ffffffffffffffffffffffffffffffffffffffff16036107f8575f6040517f1e4fbdf70000000000000000000000000000000000000000000000000000000081526004016107ef9190610c63565b60405180910390fd5b6108018161088b565b50565b61080c61094c565b73ffffffffffffffffffffffffffffffffffffffff1661082a610451565b73ffffffffffffffffffffffffffffffffffffffff16146108895761084d61094c565b6040517f118cdaa70000000000000000000000000000000000000000000000000000000081526004016108809190610c63565b60405180910390fd5b565b5f5f5f9054906101000a900473ffffffffffffffffffffffffffffffffffffffff169050815f5f6101000a81548173ffffffffffffffffffffffffffffffffffffffff021916908373ffffffffffffffffffffffffffffffffffffffff1602179055508173ffffffffffffffffffffffffffffffffffffffff168173ffffffffffffffffffffffffffffffffffffffff167f8be0079c531659141344cd1fd0a4f28419497f9722a3daafe3b4186f6b6457e060405160405180910390a35050565b5f33905090565b5f604051905090565b5f5ffd5b5f5ffd5b5f5ffd5b5f5ffd5b5f601f19601f8301169050919050565b7f4e487b71000000000000000000000000000000000000000000000000000000005f52604160045260245ffd5b6109b28261096c565b810181811067ffffffffffffffff821117156109d1576109d061097c565b5b80604052505050565b5f6109e3610953565b90506109ef82826109a9565b919050565b5f67ffffffffffffffff821115610a0e57610a0d61097c565b5b610a178261096c565b9050602081019050919050565b828183375f83830152505050565b5f610a44610a3f846109f4565b6109da565b905082815260208101848484011115610a6057610a5f610968565b5b610a6b848285610a24565b509392505050565b5f82601f830112610a8757610a86610964565b5b8135610a97848260208601610a32565b91505092915050565b5f819050919050565b610ab281610aa0565b8114610abc575f5ffd5b50565b5f81359050610acd81610aa9565b92915050565b5f73ffffffffffffffffffffffffffffffffffffffff82169050919050565b5f610afc82610ad3565b9050919050565b610b0c81610af2565b8114610b16575f5ffd5b50565b5f81359050610b2781610b03565b92915050565b5f5f5f60608486031215610b4457610b4361095c565b5b5f84013567ffffffffffffffff811115610b6157610b60610960565b5b610b6d86828701610a73565b9350506020610b7e86828701610abf565b9250506040610b8f86828701610b19565b9150509250925092565b5f60208284031215610bae57610bad61095c565b5b5f82013567ffffffffffffffff811115610bcb57610bca610960565b5b610bd784828501610a73565b91505092915050565b5f819050919050565b5f610c03610bfe610bf984610ad3565b610be0565b610ad3565b9050919050565b5f610c1482610be9565b9050919050565b5f610c2582610c0a565b9050919050565b610c3581610c1b565b82525050565b5f602082019050610c4e5f830184610c2c565b92915050565b610c5d81610af2565b82525050565b5f602082019050610c765f830184610c54565b92915050565b610c8581610aa0565b82525050565b5f8115159050919050565b610c9f81610c8b565b82525050565b5f608082019050610cb85f830187610c7c565b610cc56020830186610c54565b610cd26040830185610c96565b610cdf6060830184610c96565b95945050505050565b5f60208284031215610cfd57610cfc61095c565b5b5f610d0a84828501610b19565b91505092915050565b5f81519050919050565b5f81905092915050565b8281835e5f83830152505050565b5f610d3f82610d13565b610d498185610d1d565b9350610d59818560208601610d27565b80840191505092915050565b5f610d708284610d35565b915081905092915050565b5f82825260208201905092915050565b7f496e766f69636520616c726561647920657869737473000000000000000000005f82015250565b5f610dbf601683610d7b565b9150610dca82610d8b565b602082019050919050565b5f6020820190508181035f830152610dec81610db3565b9050919050565b5f602082019050610e065f830184610c7c565b92915050565b7f496e766f696365206e6f7420666f756e640000000000000000000000000000005f82015250565b5f610e40601183610d7b565b9150610e4b82610e0c565b602082019050919050565b5f6020820190508181035f830152610e6d81610e34565b9050919050565b7f436f6e646974696f6e206e6f74206d65740000000000000000000000000000005f82015250565b5f610ea8601183610d7b565b9150610eb382610e74565b602082019050919050565b5f6020820190508181035f830152610ed581610e9c565b9050919050565b7f5061796d656e7420616c7265616479206d6164650000000000000000000000005f82015250565b5f610f10601483610d7b565b9150610f1b82610edc565b602082019050919050565b5f6020820190508181035f830152610f3d81610f04565b9050919050565b5f604082019050610f575f830185610c54565b610f646020830184610c7c565b9392505050565b610f7481610c8b565b8114610f7e575f5ffd5b50565b5f81519050610f8f81610f6b565b92915050565b5f60208284031215610faa57610fa961095c565b5b5f610fb784828501610f81565b9150509291505056fea2646970667358221220b9e66dba2c04a5266630a0c8b32c47b8c93c74c591196d7a8225b45d4dd7443b64736f6c634300081e0033","linkReferences":{}},"methodIdentifiers":{"createPayment(string,uint256,address)":"03120d46","executePayment(string)":"cecd0264","owner()":"8da5cb5b","paymentConditions(string)":"ae2b8840","renounceOwnership()":"715018a6","setPaymentFulfilled(string)":"0a7c9ebb","transferOwnership(address)":"f2fde38b","usdcToken()":"11eac855"},"id":3}